{
  "contractName": "FastCoin",
  "abi": [
    {
      "inputs": [
        {
          "internalType": "uint256",
          "name": "_numTokens",
          "type": "uint256"
        },
        {
          "internalType": "address",
          "name": "_loyalty",
          "type": "address"
        }
      ],
      "stateMutability": "nonpayable",
      "type": "constructor"
    },
    {
      "anonymous": false,
      "inputs": [
        {
          "indexed": false,
          "internalType": "address",
          "name": "owner",
          "type": "address"
        },
        {
          "indexed": false,
          "internalType": "address",
          "name": "spender",
          "type": "address"
        },
        {
          "indexed": false,
          "internalType": "uint256",
          "name": "value",
          "type": "uint256"
        }
      ],
      "name": "Approval",
      "type": "event"
    },
    {
      "anonymous": false,
      "inputs": [
        {
          "indexed": false,
          "internalType": "address",
          "name": "from",
          "type": "address"
        },
        {
          "indexed": false,
          "internalType": "address",
          "name": "to",
          "type": "address"
        },
        {
          "indexed": false,
          "internalType": "uint256",
          "name": "value",
          "type": "uint256"
        }
      ],
      "name": "Transfer",
      "type": "event"
    },
    {
      "inputs": [],
      "name": "ownerToken",
      "outputs": [
        {
          "internalType": "address",
          "name": "",
          "type": "address"
        }
      ],
      "stateMutability": "view",
      "type": "function",
      "constant": true
    },
    {
      "inputs": [],
      "name": "totalSupply",
      "outputs": [
        {
          "internalType": "uint256",
          "name": "",
          "type": "uint256"
        }
      ],
      "stateMutability": "view",
      "type": "function",
      "constant": true
    },
    {
      "inputs": [
        {
          "internalType": "address",
          "name": "account",
          "type": "address"
        }
      ],
      "name": "balanceOf",
      "outputs": [
        {
          "internalType": "uint256",
          "name": "",
          "type": "uint256"
        }
      ],
      "stateMutability": "view",
      "type": "function",
      "constant": true
    },
    {
      "inputs": [
        {
          "internalType": "address",
          "name": "recipient",
          "type": "address"
        },
        {
          "internalType": "uint256",
          "name": "amount",
          "type": "uint256"
        }
      ],
      "name": "transfer",
      "outputs": [
        {
          "internalType": "bool",
          "name": "",
          "type": "bool"
        }
      ],
      "stateMutability": "nonpayable",
      "type": "function"
    },
    {
      "inputs": [
        {
          "internalType": "address",
          "name": "owner",
          "type": "address"
        },
        {
          "internalType": "address",
          "name": "spender",
          "type": "address"
        }
      ],
      "name": "allowance",
      "outputs": [
        {
          "internalType": "uint256",
          "name": "",
          "type": "uint256"
        }
      ],
      "stateMutability": "view",
      "type": "function",
      "constant": true
    },
    {
      "inputs": [
        {
          "internalType": "address",
          "name": "spender",
          "type": "address"
        },
        {
          "internalType": "uint256",
          "name": "value",
          "type": "uint256"
        }
      ],
      "name": "approve",
      "outputs": [
        {
          "internalType": "bool",
          "name": "",
          "type": "bool"
        }
      ],
      "stateMutability": "nonpayable",
      "type": "function"
    },
    {
      "inputs": [
        {
          "internalType": "address",
          "name": "sender",
          "type": "address"
        },
        {
          "internalType": "address",
          "name": "recipient",
          "type": "address"
        },
        {
          "internalType": "uint256",
          "name": "amount",
          "type": "uint256"
        }
      ],
      "name": "transferFrom",
      "outputs": [
        {
          "internalType": "bool",
          "name": "",
          "type": "bool"
        }
      ],
      "stateMutability": "nonpayable",
      "type": "function"
    },
    {
      "inputs": [
        {
          "internalType": "uint256",
          "name": "amount",
          "type": "uint256"
        }
      ],
      "name": "getTokens",
      "outputs": [],
      "stateMutability": "payable",
      "type": "function",
      "payable": true
    }
  ],
  "bytecode": "0x60806040523480156200001157600080fd5b5060405162000d6938038062000d698339818101604052810190620000379190620001b3565b33600360006101000a81548173ffffffffffffffffffffffffffffffffffffffff021916908373ffffffffffffffffffffffffffffffffffffffff16021790555081600081905550600054600160003373ffffffffffffffffffffffffffffffffffffffff1673ffffffffffffffffffffffffffffffffffffffff1681526020019081526020016000208190555080600460006101000a81548173ffffffffffffffffffffffffffffffffffffffff021916908373ffffffffffffffffffffffffffffffffffffffff1602179055505050620001fa565b600080fd5b6000819050919050565b620001288162000113565b81146200013457600080fd5b50565b60008151905062000148816200011d565b92915050565b600073ffffffffffffffffffffffffffffffffffffffff82169050919050565b60006200017b826200014e565b9050919050565b6200018d816200016e565b81146200019957600080fd5b50565b600081519050620001ad8162000182565b92915050565b60008060408385031215620001cd57620001cc6200010e565b5b6000620001dd8582860162000137565b9250506020620001f0858286016200019c565b9150509250929050565b610b5f806200020a6000396000f3fe60806040526004361061007b5760003560e01c806370a082311161004e57806370a0823114610150578063a9059cbb1461018d578063d3c9cc26146101ca578063dd62ed3e146101e65761007b565b8063095ea7b31461008057806318160ddd146100bd57806323b872dd146100e85780636537188314610125575b600080fd5b34801561008c57600080fd5b506100a760048036038101906100a2919061085f565b610223565b6040516100b491906108ba565b60405180910390f35b3480156100c957600080fd5b506100d26102fc565b6040516100df91906108e4565b60405180910390f35b3480156100f457600080fd5b5061010f600480360381019061010a91906108ff565b610305565b60405161011c91906108ba565b60405180910390f35b34801561013157600080fd5b5061013a610524565b6040516101479190610961565b60405180910390f35b34801561015c57600080fd5b506101776004803603810190610172919061097c565b61054a565b60405161018491906108e4565b60405180910390f35b34801561019957600080fd5b506101b460048036038101906101af919061085f565b610593565b6040516101c191906108ba565b60405180910390f35b6101e460048036038101906101df91906109a9565b610697565b005b3480156101f257600080fd5b5061020d600480360381019061020891906109d6565b61073f565b60405161021a91906108e4565b60405180910390f35b600081600160003373ffffffffffffffffffffffffffffffffffffffff1673ffffffffffffffffffffffffffffffffffffffff16815260200190815260200160002054101561027157600080fd5b81600260003373ffffffffffffffffffffffffffffffffffffffff1673ffffffffffffffffffffffffffffffffffffffff16815260200190815260200160002060008573ffffffffffffffffffffffffffffffffffffffff1673ffffffffffffffffffffffffffffffffffffffff168152602001908152602001600020819055506001905092915050565b60008054905090565b6000600160008573ffffffffffffffffffffffffffffffffffffffff1673ffffffffffffffffffffffffffffffffffffffff16815260200190815260200160002054821061035257600080fd5b600260008573ffffffffffffffffffffffffffffffffffffffff1673ffffffffffffffffffffffffffffffffffffffff16815260200190815260200160002060003373ffffffffffffffffffffffffffffffffffffffff1673ffffffffffffffffffffffffffffffffffffffff1681526020019081526020016000205482106103da57600080fd5b81600160008673ffffffffffffffffffffffffffffffffffffffff1673ffffffffffffffffffffffffffffffffffffffff16815260200190815260200160002060008282546104299190610a45565b9250508190555081600160008573ffffffffffffffffffffffffffffffffffffffff1673ffffffffffffffffffffffffffffffffffffffff168152602001908152602001600020600082825461047f9190610a79565b9250508190555081600260008673ffffffffffffffffffffffffffffffffffffffff1673ffffffffffffffffffffffffffffffffffffffff16815260200190815260200160002060003373ffffffffffffffffffffffffffffffffffffffff1673ffffffffffffffffffffffffffffffffffffffff16815260200190815260200160002060008282546105129190610a45565b92505081905550600190509392505050565b600360009054906101000a900473ffffffffffffffffffffffffffffffffffffffff1681565b6000600160008373ffffffffffffffffffffffffffffffffffffffff1673ffffffffffffffffffffffffffffffffffffffff168152602001908152602001600020549050919050565b600081600160003373ffffffffffffffffffffffffffffffffffffffff1673ffffffffffffffffffffffffffffffffffffffff1681526020019081526020016000205410156105e157600080fd5b81600160003373ffffffffffffffffffffffffffffffffffffffff1673ffffffffffffffffffffffffffffffffffffffff16815260200190815260200160002060008282546106309190610a45565b9250508190555081600160008573ffffffffffffffffffffffffffffffffffffffff1673ffffffffffffffffffffffffffffffffffffffff16815260200190815260200160002060008282546106869190610a79565b925050819055506001905092915050565b670de0b6b3a7640000816106ab9190610acf565b34116106b657600080fd5b600a816106c39190610acf565b6000808282546106d39190610a45565b92505081905550600a816106e79190610acf565b600160003373ffffffffffffffffffffffffffffffffffffffff1673ffffffffffffffffffffffffffffffffffffffff16815260200190815260200160002060008282546107359190610a79565b9250508190555050565b6000600260008473ffffffffffffffffffffffffffffffffffffffff1673ffffffffffffffffffffffffffffffffffffffff16815260200190815260200160002060008373ffffffffffffffffffffffffffffffffffffffff1673ffffffffffffffffffffffffffffffffffffffff16815260200190815260200160002054905092915050565b600080fd5b600073ffffffffffffffffffffffffffffffffffffffff82169050919050565b60006107f6826107cb565b9050919050565b610806816107eb565b811461081157600080fd5b50565b600081359050610823816107fd565b92915050565b6000819050919050565b61083c81610829565b811461084757600080fd5b50565b60008135905061085981610833565b92915050565b60008060408385031215610876576108756107c6565b5b600061088485828601610814565b92505060206108958582860161084a565b9150509250929050565b60008115159050919050565b6108b48161089f565b82525050565b60006020820190506108cf60008301846108ab565b92915050565b6108de81610829565b82525050565b60006020820190506108f960008301846108d5565b92915050565b600080600060608486031215610918576109176107c6565b5b600061092686828701610814565b935050602061093786828701610814565b92505060406109488682870161084a565b9150509250925092565b61095b816107eb565b82525050565b60006020820190506109766000830184610952565b92915050565b600060208284031215610992576109916107c6565b5b60006109a084828501610814565b91505092915050565b6000602082840312156109bf576109be6107c6565b5b60006109cd8482850161084a565b91505092915050565b600080604083850312156109ed576109ec6107c6565b5b60006109fb85828601610814565b9250506020610a0c85828601610814565b9150509250929050565b7f4e487b7100000000000000000000000000000000000000000000000000000000600052601160045260246000fd5b6000610a5082610829565b9150610a5b83610829565b925082821015610a6e57610a6d610a16565b5b828203905092915050565b6000610a8482610829565b9150610a8f83610829565b9250827fffffffffffffffffffffffffffffffffffffffffffffffffffffffffffffffff03821115610ac457610ac3610a16565b5b828201905092915050565b6000610ada82610829565b9150610ae583610829565b9250817fffffffffffffffffffffffffffffffffffffffffffffffffffffffffffffffff0483118215151615610b1e57610b1d610a16565b5b82820290509291505056fea264697066735822122024a751d11f845edf5a81542aed32c83565bb69aba03b7a61efaa0f18ff143f7464736f6c634300080b0033",
  "immutableReferences": {},
  "source": "// SPDX-License-Identifier: MIT\r\npragma solidity ^0.8.11;\r\n\r\nimport \"../interfaces/IERC20.sol\";\r\nimport \"./RewardsAndLoyalty.sol\";\r\n\r\ncontract FastCoin is iERC20{\r\n    \r\n    uint numTokens;\r\n    mapping(address=>uint) balance;\r\n    mapping (address=>mapping(address=>uint)) approvalLimit;\r\n    address public ownerToken;\r\n    RewardsAndLoyalty loyalty;\r\n\r\n    constructor(uint _numTokens,address _loyalty) {\r\n        ownerToken=msg.sender;\r\n        numTokens=_numTokens;\r\n        balance[msg.sender]=numTokens;\r\n        loyalty= RewardsAndLoyalty(_loyalty);\r\n\r\n    }\r\n\r\n    modifier onlyOwner(){\r\n        require(msg.sender==ownerToken);\r\n        _;\r\n    }\r\n\r\n    function totalSupply() external view returns (uint256){\r\n        return numTokens;\r\n    }\r\n\r\n    function balanceOf(address account) external view returns (uint256){\r\n        return balance[account];\r\n    }\r\n\r\n    function transfer(address recipient, uint256 amount) external returns (bool){\r\n        require (balance[msg.sender] >= amount);\r\n        balance[msg.sender] -= amount;\r\n        balance[recipient] += amount;\r\n        return true;\r\n    }\r\n\r\n    function allowance(address owner, address spender) external view returns (uint256){\r\n        return approvalLimit[owner][spender];\r\n    }\r\n\r\n    function approve(address spender, uint256 value) external returns (bool){\r\n        require(balance[msg.sender]>=value);\r\n        approvalLimit[msg.sender][spender]=value;\r\n        return true;\r\n    }\r\n\r\n    function transferFrom(address sender, address recipient, uint256 amount) external returns (bool){\r\n        require(amount<balance[sender]);\r\n        require(amount<approvalLimit[sender][msg.sender]);\r\n        balance[sender]-=amount;\r\n        balance[recipient]+=amount;\r\n        approvalLimit[sender][msg.sender]-=amount;\r\n        return true;\r\n    }\r\n\r\n    function getTokens(uint amount) external payable {\r\n        require(msg.value>(amount)*1 ether);\r\n        numTokens-=amount*10;\r\n        balance[msg.sender]+=amount*10;\r\n    }\r\n\r\n    function processPayment(uint price,address buyer)internal onlyOwner returns (bool){\r\n        uint reward=0;\r\n        require(balance[buyer]>=price);\r\n        balance[buyer]-=price;\r\n        reward=loyalty.getReward(price);\r\n        numTokens+=reward;\r\n        this.transfer(buyer,reward);\r\n        return true;\r\n    }\r\n    \r\n}",
  "sourcePath": "D:\\Programming\\VSCode\\Solidity\\cafeteria-dapp\\contracts\\FastCoin.sol",
  "compiler": {
    "name": "solc",
    "version": "0.8.11+commit.d7f03943.Emscripten.clang"
  },
  "schemaVersion": "3.4.16",
  "updatedAt": "2024-01-06T16:54:31.344Z",
  "networkType": "ethereum",
  "devdoc": {
    "kind": "dev",
    "methods": {},
    "version": 1
  },
  "userdoc": {
    "kind": "user",
    "methods": {},
    "version": 1
  }
}