{
  "contractName": "MenuManagement",
  "abi": [
    {
      "inputs": [],
      "stateMutability": "nonpayable",
      "type": "constructor"
    },
    {
      "anonymous": false,
      "inputs": [
        {
          "indexed": false,
          "internalType": "string",
          "name": "message",
          "type": "string"
        }
      ],
      "name": "LogMessage",
      "type": "event"
    },
    {
      "inputs": [
        {
          "internalType": "string",
          "name": "",
          "type": "string"
        }
      ],
      "name": "itemAvailability",
      "outputs": [
        {
          "internalType": "bool",
          "name": "",
          "type": "bool"
        }
      ],
      "stateMutability": "view",
      "type": "function",
      "constant": true
    },
    {
      "inputs": [
        {
          "internalType": "string",
          "name": "",
          "type": "string"
        }
      ],
      "name": "itemsPrice",
      "outputs": [
        {
          "internalType": "uint256",
          "name": "",
          "type": "uint256"
        }
      ],
      "stateMutability": "view",
      "type": "function",
      "constant": true
    },
    {
      "inputs": [
        {
          "internalType": "string",
          "name": "",
          "type": "string"
        }
      ],
      "name": "itemsQuantity",
      "outputs": [
        {
          "internalType": "uint256",
          "name": "",
          "type": "uint256"
        }
      ],
      "stateMutability": "view",
      "type": "function",
      "constant": true
    },
    {
      "inputs": [
        {
          "internalType": "uint256",
          "name": "",
          "type": "uint256"
        }
      ],
      "name": "menuItems",
      "outputs": [
        {
          "internalType": "string",
          "name": "",
          "type": "string"
        }
      ],
      "stateMutability": "view",
      "type": "function",
      "constant": true
    },
    {
      "inputs": [],
      "name": "owner",
      "outputs": [
        {
          "internalType": "address",
          "name": "",
          "type": "address"
        }
      ],
      "stateMutability": "view",
      "type": "function",
      "constant": true
    },
    {
      "inputs": [
        {
          "internalType": "string",
          "name": "itemName",
          "type": "string"
        },
        {
          "internalType": "uint256",
          "name": "quantity",
          "type": "uint256"
        }
      ],
      "name": "addItem",
      "outputs": [],
      "stateMutability": "nonpayable",
      "type": "function"
    },
    {
      "inputs": [
        {
          "internalType": "string",
          "name": "itemName",
          "type": "string"
        },
        {
          "internalType": "uint256",
          "name": "newPrice",
          "type": "uint256"
        }
      ],
      "name": "updatePrice",
      "outputs": [],
      "stateMutability": "nonpayable",
      "type": "function"
    },
    {
      "inputs": [
        {
          "internalType": "string",
          "name": "itemName",
          "type": "string"
        }
      ],
      "name": "checkPrice",
      "outputs": [
        {
          "internalType": "uint256",
          "name": "",
          "type": "uint256"
        }
      ],
      "stateMutability": "view",
      "type": "function",
      "constant": true
    },
    {
      "inputs": [
        {
          "internalType": "string",
          "name": "itemName",
          "type": "string"
        }
      ],
      "name": "checkQuantity",
      "outputs": [
        {
          "internalType": "uint256",
          "name": "",
          "type": "uint256"
        }
      ],
      "stateMutability": "view",
      "type": "function",
      "constant": true
    },
    {
      "inputs": [
        {
          "internalType": "string",
          "name": "itemName",
          "type": "string"
        },
        {
          "internalType": "uint256",
          "name": "quantity",
          "type": "uint256"
        }
      ],
      "name": "updateQuantity",
      "outputs": [],
      "stateMutability": "nonpayable",
      "type": "function"
    },
    {
      "inputs": [
        {
          "internalType": "string",
          "name": "itemName",
          "type": "string"
        }
      ],
      "name": "checkAvailability",
      "outputs": [
        {
          "internalType": "bool",
          "name": "",
          "type": "bool"
        }
      ],
      "stateMutability": "view",
      "type": "function",
      "constant": true
    },
    {
      "inputs": [
        {
          "internalType": "string",
          "name": "itemName",
          "type": "string"
        },
        {
          "internalType": "bool",
          "name": "status",
          "type": "bool"
        }
      ],
      "name": "updateAvailability",
      "outputs": [],
      "stateMutability": "nonpayable",
      "type": "function"
    }
  ],
  "bytecode": "0x608060405234801561001057600080fd5b50336000806101000a81548173ffffffffffffffffffffffffffffffffffffffff021916908373ffffffffffffffffffffffffffffffffffffffff160217905550611458806100606000396000f3fe608060405234801561001057600080fd5b50600436106100b45760003560e01c8063abc4544e11610071578063abc4544e14610177578063bdc3662b146101a7578063c75d61e6146101d7578063db66cc2514610207578063e1409a4014610237578063f410de0c14610267576100b4565b80631d894eb8146100b95780632a5a8c63146100d55780634a432a461461010557806362d6bbdf146101215780638da5cb5b1461013d578063aaf0faef1461015b575b600080fd5b6100d360048036038101906100ce9190610d22565b610297565b005b6100ef60048036038101906100ea9190610d7e565b610381565b6040516100fc9190610e33565b60405180910390f35b61011f600480360381019061011a9190610d22565b61042d565b005b61013b60048036038101906101369190610d22565b61054d565b005b610145610675565b6040516101529190610e96565b60405180910390f35b61017560048036038101906101709190610ee9565b610699565b005b610191600480360381019061018c9190610f45565b6109d8565b60405161019e9190610f9d565b60405180910390f35b6101c160048036038101906101bc9190610f45565b610a00565b6040516101ce9190610f9d565b60405180910390f35b6101f160048036038101906101ec9190610f45565b610a28565b6040516101fe9190610f9d565b60405180910390f35b610221600480360381019061021c9190610f45565b610a56565b60405161022e9190610fc7565b60405180910390f35b610251600480360381019061024c9190610f45565b610a8c565b60405161025e9190610fc7565b60405180910390f35b610281600480360381019061027c9190610f45565b610ac1565b60405161028e9190610f9d565b60405180910390f35b60008054906101000a900473ffffffffffffffffffffffffffffffffffffffff1673ffffffffffffffffffffffffffffffffffffffff163373ffffffffffffffffffffffffffffffffffffffff1614610325576040517f08c379a000000000000000000000000000000000000000000000000000000000815260040161031c90611054565b60405180910390fd5b8060028360405161033691906110b0565b9081526020016040518091039020819055507f96561394bac381230de4649200e8831afcab1f451881bbade9ef209f6dd3048060405161037590611139565b60405180910390a15050565b6001818154811061039157600080fd5b9060005260206000200160009150905080546103ac90611188565b80601f01602080910402602001604051908101604052809291908181526020018280546103d890611188565b80156104255780601f106103fa57610100808354040283529160200191610425565b820191906000526020600020905b81548152906001019060200180831161040857829003601f168201915b505050505081565b60008054906101000a900473ffffffffffffffffffffffffffffffffffffffff1673ffffffffffffffffffffffffffffffffffffffff163373ffffffffffffffffffffffffffffffffffffffff16146104bb576040517f08c379a00000000000000000000000000000000000000000000000000000000081526004016104b290611054565b60405180910390fd5b6004826040516104cb91906110b0565b908152602001604051809103902060009054906101000a900460ff16610526576040517f08c379a000000000000000000000000000000000000000000000000000000000815260040161051d90611206565b60405180910390fd5b8060038360405161053791906110b0565b9081526020016040518091039020819055505050565b60008054906101000a900473ffffffffffffffffffffffffffffffffffffffff1673ffffffffffffffffffffffffffffffffffffffff163373ffffffffffffffffffffffffffffffffffffffff16146105db576040517f08c379a00000000000000000000000000000000000000000000000000000000081526004016105d290611054565b60405180910390fd5b600182908060018154018082558091505060019003906000526020600020016000909190919091509080519060200190610616929190610aef565b508060028360405161062891906110b0565b908152602001604051809103902081905550600160048360405161064c91906110b0565b908152602001604051809103902060006101000a81548160ff0219169083151502179055505050565b60008054906101000a900473ffffffffffffffffffffffffffffffffffffffff1681565b60008054906101000a900473ffffffffffffffffffffffffffffffffffffffff1673ffffffffffffffffffffffffffffffffffffffff163373ffffffffffffffffffffffffffffffffffffffff1614610727576040517f08c379a000000000000000000000000000000000000000000000000000000000815260040161071e90611054565b60405180910390fd5b6000151560048360405161073b91906110b0565b908152602001604051809103902060009054906101000a900460ff16151514801561076a575060001515811515145b156107a9577f96561394bac381230de4649200e8831afcab1f451881bbade9ef209f6dd3048060405161079c90611272565b60405180910390a16109d4565b600115156004836040516107bd91906110b0565b908152602001604051809103902060009054906101000a900460ff1615151480156107ec575060011515811515145b1561082b577f96561394bac381230de4649200e8831afcab1f451881bbade9ef209f6dd3048060405161081e906112de565b60405180910390a16109d3565b6000151560048360405161083f91906110b0565b908152602001604051809103902060009054906101000a900460ff16151514801561086e575060011515811515145b15610900576001151560048360405161088791906110b0565b908152602001604051809103902060009054906101000a905050507f96561394bac381230de4649200e8831afcab1f451881bbade9ef209f6dd304806040516108cf90611370565b60405180910390a160016002836040516108e991906110b0565b9081526020016040518091039020819055506109d2565b6001151560048360405161091491906110b0565b908152602001604051809103902060009054906101000a900460ff161515148015610943575060001515811515145b156109d1576000151560048360405161095c91906110b0565b908152602001604051809103902060009054906101000a905050507f96561394bac381230de4649200e8831afcab1f451881bbade9ef209f6dd304806040516109a490611402565b60405180910390a160006002836040516109be91906110b0565b9081526020016040518091039020819055505b5b5b5b5050565b60006003826040516109ea91906110b0565b9081526020016040518091039020549050919050565b6000600282604051610a1291906110b0565b9081526020016040518091039020549050919050565b6002818051602081018201805184825260208301602085012081835280955050505050506000915090505481565b6004818051602081018201805184825260208301602085012081835280955050505050506000915054906101000a900460ff1681565b6000600482604051610a9e91906110b0565b908152602001604051809103902060009054906101000a900460ff169050919050565b6003818051602081018201805184825260208301602085012081835280955050505050506000915090505481565b828054610afb90611188565b90600052602060002090601f016020900481019282610b1d5760008555610b64565b82601f10610b3657805160ff1916838001178555610b64565b82800160010185558215610b64579182015b82811115610b63578251825591602001919060010190610b48565b5b509050610b719190610b75565b5090565b5b80821115610b8e576000816000905550600101610b76565b5090565b6000604051905090565b600080fd5b600080fd5b600080fd5b600080fd5b6000601f19601f8301169050919050565b7f4e487b7100000000000000000000000000000000000000000000000000000000600052604160045260246000fd5b610bf982610bb0565b810181811067ffffffffffffffff82111715610c1857610c17610bc1565b5b80604052505050565b6000610c2b610b92565b9050610c378282610bf0565b919050565b600067ffffffffffffffff821115610c5757610c56610bc1565b5b610c6082610bb0565b9050602081019050919050565b82818337600083830152505050565b6000610c8f610c8a84610c3c565b610c21565b905082815260208101848484011115610cab57610caa610bab565b5b610cb6848285610c6d565b509392505050565b600082601f830112610cd357610cd2610ba6565b5b8135610ce3848260208601610c7c565b91505092915050565b6000819050919050565b610cff81610cec565b8114610d0a57600080fd5b50565b600081359050610d1c81610cf6565b92915050565b60008060408385031215610d3957610d38610b9c565b5b600083013567ffffffffffffffff811115610d5757610d56610ba1565b5b610d6385828601610cbe565b9250506020610d7485828601610d0d565b9150509250929050565b600060208284031215610d9457610d93610b9c565b5b6000610da284828501610d0d565b91505092915050565b600081519050919050565b600082825260208201905092915050565b60005b83811015610de5578082015181840152602081019050610dca565b83811115610df4576000848401525b50505050565b6000610e0582610dab565b610e0f8185610db6565b9350610e1f818560208601610dc7565b610e2881610bb0565b840191505092915050565b60006020820190508181036000830152610e4d8184610dfa565b905092915050565b600073ffffffffffffffffffffffffffffffffffffffff82169050919050565b6000610e8082610e55565b9050919050565b610e9081610e75565b82525050565b6000602082019050610eab6000830184610e87565b92915050565b60008115159050919050565b610ec681610eb1565b8114610ed157600080fd5b50565b600081359050610ee381610ebd565b92915050565b60008060408385031215610f0057610eff610b9c565b5b600083013567ffffffffffffffff811115610f1e57610f1d610ba1565b5b610f2a85828601610cbe565b9250506020610f3b85828601610ed4565b9150509250929050565b600060208284031215610f5b57610f5a610b9c565b5b600082013567ffffffffffffffff811115610f7957610f78610ba1565b5b610f8584828501610cbe565b91505092915050565b610f9781610cec565b82525050565b6000602082019050610fb26000830184610f8e565b92915050565b610fc181610eb1565b82525050565b6000602082019050610fdc6000830184610fb8565b92915050565b7f4f6e6c7920746865206f776e65722063616e2063616c6c20746869732066756e60008201527f6374696f6e000000000000000000000000000000000000000000000000000000602082015250565b600061103e602583610db6565b915061104982610fe2565b604082019050919050565b6000602082019050818103600083015261106d81611031565b9050919050565b600081905092915050565b600061108a82610dab565b6110948185611074565b93506110a4818560208601610dc7565b80840191505092915050565b60006110bc828461107f565b915081905092915050565b7f4974656d73207175616e7469747920686173206265656e20736574207375636360008201527f65737366756c6c79000000000000000000000000000000000000000000000000602082015250565b6000611123602883610db6565b915061112e826110c7565b604082019050919050565b6000602082019050818103600083015261115281611116565b9050919050565b7f4e487b7100000000000000000000000000000000000000000000000000000000600052602260045260246000fd5b600060028204905060018216806111a057607f821691505b602082108114156111b4576111b3611159565b5b50919050565b7f4974656d20646f6573206e6f7420657869737400000000000000000000000000600082015250565b60006111f0601383610db6565b91506111fb826111ba565b602082019050919050565b6000602082019050818103600083015261121f816111e3565b9050919050565b7f4974656d20697320616c726561647920756e617661696c61626c650000000000600082015250565b600061125c601b83610db6565b915061126782611226565b602082019050919050565b6000602082019050818103600083015261128b8161124f565b9050919050565b7f4974656d20697320616c726561647920617661696c61626c6500000000000000600082015250565b60006112c8601983610db6565b91506112d382611292565b602082019050919050565b600060208201905081810360008301526112f7816112bb565b9050919050565b7f4974656d20686173206265656e206d61646520617661696c61626c652073756360008201527f6365737366756c6c792100000000000000000000000000000000000000000000602082015250565b600061135a602a83610db6565b9150611365826112fe565b604082019050919050565b600060208201905081810360008301526113898161134d565b9050919050565b7f4974656d20686173206265656e206d61646520756e617661696c61626c65207360008201527f75636365737366756c6c79210000000000000000000000000000000000000000602082015250565b60006113ec602c83610db6565b91506113f782611390565b604082019050919050565b6000602082019050818103600083015261141b816113df565b905091905056fea264697066735822122068eaf66ed2a8fdeb073ebe5ebf54b651464ad29a263f5edcea4be6e5da2c618664736f6c634300080b0033",
  "immutableReferences": {},
  "source": "// SPDX-License-Identifier: MIT\r\npragma solidity ^0.8.11;\r\n\r\ncontract MenuManagement {\r\n    address public owner;\r\n    string []public menuItems;\r\n    mapping(string => uint) public itemsQuantity;   // Item name to quantity\r\n    mapping(string => uint) public itemsPrice; // Item name to price\r\n    mapping(string => bool) public itemAvailability; // Item availability status\r\n    event LogMessage(string message);\r\n\r\n    constructor() {\r\n        owner = msg.sender;\r\n    }\r\n\r\n    modifier onlyOwner() {\r\n        require(msg.sender == owner, \"Only the owner can call this function\");\r\n        _;\r\n    }\r\n\r\n    function addItem(string memory itemName, uint quantity) public onlyOwner {\r\n        menuItems.push(itemName);\r\n        itemsQuantity[itemName] = quantity;\r\n        itemAvailability[itemName] = true;\r\n    }\r\n\r\n    function updatePrice(string memory itemName, uint newPrice) public onlyOwner {\r\n        require(itemAvailability[itemName], \"Item does not exist\");\r\n        itemsPrice[itemName] = newPrice;\r\n    }\r\n\r\n    \r\n    function checkPrice(string memory itemName) public view returns (uint){\r\n         return itemsPrice[itemName]; \r\n    }\r\n\r\n    function checkQuantity(string memory itemName) public view returns (uint) {\r\n        return itemsQuantity[itemName];\r\n    }\r\n\r\n    function updateQuantity(string memory itemName, uint quantity) public onlyOwner {\r\n        itemsQuantity[itemName]=quantity;\r\n        emit LogMessage(\"Items quantity has been set successfully\");\r\n    }\r\n\r\n    function checkAvailability(string memory itemName) public view returns (bool) {\r\n        return itemAvailability[itemName];\r\n    }\r\n\r\n    function updateAvailability(string memory itemName, bool status) public onlyOwner {\r\n        if (itemAvailability[itemName]==false && status==false)\r\n            emit LogMessage(\"Item is already unavailable\");\r\n        else if (itemAvailability[itemName]==true && status==true)\r\n            emit LogMessage(\"Item is already available\");\r\n        else if (itemAvailability[itemName]==false && status ==true)\r\n        {\r\n            itemAvailability[itemName]==true;\r\n            emit LogMessage(\"Item has been made available successfully!\");\r\n            itemsQuantity[itemName]=1; //default quantity set for an item made available from unavailable\r\n        }\r\n        else if(itemAvailability[itemName]==true && status ==false)\r\n        {\r\n            itemAvailability[itemName]==false;\r\n            emit LogMessage(\"Item has been made unavailable successfully!\");\r\n            itemsQuantity[itemName]=0;\r\n        }\r\n\r\n    }\r\n}\r\n",
  "sourcePath": "D:\\Programming\\VSCode\\Solidity\\cafeteria-dapp\\contracts\\MenuManagement.sol",
  "compiler": {
    "name": "solc",
    "version": "0.8.11+commit.d7f03943.Emscripten.clang"
  },
  "schemaVersion": "3.4.16",
  "updatedAt": "2024-01-06T16:54:31.022Z",
  "networkType": "ethereum",
  "devdoc": {
    "kind": "dev",
    "methods": {},
    "version": 1
  },
  "userdoc": {
    "kind": "user",
    "methods": {},
    "version": 1
  }
}