{
  "contractName": "OrderProcessing",
  "abi": [
    {
      "inputs": [
        {
          "internalType": "address",
          "name": "_menu",
          "type": "address"
        },
        {
          "internalType": "address",
          "name": "_discount",
          "type": "address"
        }
      ],
      "stateMutability": "nonpayable",
      "type": "constructor"
    },
    {
      "inputs": [],
      "name": "discount",
      "outputs": [
        {
          "internalType": "contract PromotionsAndDiscounts",
          "name": "",
          "type": "address"
        }
      ],
      "stateMutability": "view",
      "type": "function",
      "constant": true
    },
    {
      "inputs": [
        {
          "internalType": "uint256",
          "name": "",
          "type": "uint256"
        }
      ],
      "name": "items",
      "outputs": [
        {
          "internalType": "string",
          "name": "",
          "type": "string"
        }
      ],
      "stateMutability": "view",
      "type": "function",
      "constant": true
    },
    {
      "inputs": [],
      "name": "menu",
      "outputs": [
        {
          "internalType": "contract MenuManagement",
          "name": "",
          "type": "address"
        }
      ],
      "stateMutability": "view",
      "type": "function",
      "constant": true
    },
    {
      "inputs": [
        {
          "internalType": "string",
          "name": "itemName",
          "type": "string"
        },
        {
          "internalType": "uint256",
          "name": "q",
          "type": "uint256"
        }
      ],
      "name": "selectItems",
      "outputs": [],
      "stateMutability": "nonpayable",
      "type": "function"
    },
    {
      "inputs": [],
      "name": "placeOrder",
      "outputs": [
        {
          "internalType": "uint256",
          "name": "",
          "type": "uint256"
        }
      ],
      "stateMutability": "nonpayable",
      "type": "function"
    }
  ],
  "bytecode": "0x60806040523480156200001157600080fd5b50604051620011173803806200111783398181016040528101906200003791906200012a565b816000806101000a81548173ffffffffffffffffffffffffffffffffffffffff021916908373ffffffffffffffffffffffffffffffffffffffff16021790555080600160006101000a81548173ffffffffffffffffffffffffffffffffffffffff021916908373ffffffffffffffffffffffffffffffffffffffff160217905550505062000171565b600080fd5b600073ffffffffffffffffffffffffffffffffffffffff82169050919050565b6000620000f282620000c5565b9050919050565b6200010481620000e5565b81146200011057600080fd5b50565b6000815190506200012481620000f9565b92915050565b60008060408385031215620001445762000143620000c0565b5b6000620001548582860162000113565b9250506020620001678582860162000113565b9150509250929050565b610f9680620001816000396000f3fe608060405234801561001057600080fd5b50600436106100575760003560e01c80636b6f4a9d1461005c5780637dd730b81461007a578063bfb231d214610096578063f0439f71146100c6578063f5c609e0146100e4575b600080fd5b610064610102565b604051610071919061071f565b60405180910390f35b610094600480360381019061008f91906108ca565b610128565b005b6100b060048036038101906100ab9190610926565b61033f565b6040516100bd91906109db565b60405180910390f35b6100ce6103eb565b6040516100db9190610a1e565b60405180910390f35b6100ec61040f565b6040516100f99190610a48565b60405180910390f35b600160009054906101000a900473ffffffffffffffffffffffffffffffffffffffff1681565b60008054906101000a900473ffffffffffffffffffffffffffffffffffffffff1673ffffffffffffffffffffffffffffffffffffffff1663e1409a40836040518263ffffffff1660e01b815260040161018191906109db565b602060405180830381865afa15801561019e573d6000803e3d6000fd5b505050506040513d601f19601f820116820180604052508101906101c29190610a9b565b610201576040517f08c379a00000000000000000000000000000000000000000000000000000000081526004016101f890610b14565b60405180910390fd5b8060008054906101000a900473ffffffffffffffffffffffffffffffffffffffff1673ffffffffffffffffffffffffffffffffffffffff1663bdc3662b846040518263ffffffff1660e01b815260040161025b91906109db565b602060405180830381865afa158015610278573d6000803e3d6000fd5b505050506040513d601f19601f8201168201806040525081019061029c9190610b49565b116102dc576040517f08c379a00000000000000000000000000000000000000000000000000000000081526004016102d390610be8565b60405180910390fd5b6002829080600181540180825580915050600190039060005260206000200160009091909190915090805190602001906103179291906105fd565b50806003836040516103299190610c44565b9081526020016040518091039020819055505050565b6002818154811061034f57600080fd5b90600052602060002001600091509050805461036a90610c8a565b80601f016020809104026020016040519081016040528092919081815260200182805461039690610c8a565b80156103e35780601f106103b8576101008083540402835291602001916103e3565b820191906000526020600020905b8154815290600101906020018083116103c657829003601f168201915b505050505081565b60008054906101000a900473ffffffffffffffffffffffffffffffffffffffff1681565b60008060048190555060005b6002805490508110156105505760036002828154811061043e5761043d610cbc565b5b906000526020600020016040516104559190610d7f565b90815260200160405180910390205460008054906101000a900473ffffffffffffffffffffffffffffffffffffffff1673ffffffffffffffffffffffffffffffffffffffff1663abc4544e600284815481106104b4576104b3610cbc565b5b906000526020600020016040518263ffffffff1660e01b81526004016104da9190610e16565b602060405180830381865afa1580156104f7573d6000803e3d6000fd5b505050506040513d601f19601f8201168201806040525081019061051b9190610b49565b6105259190610e67565b600460008282546105369190610ec1565b92505081905550808061054890610f17565b91505061041b565b50600160009054906101000a900473ffffffffffffffffffffffffffffffffffffffff1673ffffffffffffffffffffffffffffffffffffffff166310e3ec686004546040518263ffffffff1660e01b81526004016105ae9190610a48565b602060405180830381865afa1580156105cb573d6000803e3d6000fd5b505050506040513d601f19601f820116820180604052508101906105ef9190610b49565b600481905550600454905090565b82805461060990610c8a565b90600052602060002090601f01602090048101928261062b5760008555610672565b82601f1061064457805160ff1916838001178555610672565b82800160010185558215610672579182015b82811115610671578251825591602001919060010190610656565b5b50905061067f9190610683565b5090565b5b8082111561069c576000816000905550600101610684565b5090565b600073ffffffffffffffffffffffffffffffffffffffff82169050919050565b6000819050919050565b60006106e56106e06106db846106a0565b6106c0565b6106a0565b9050919050565b60006106f7826106ca565b9050919050565b6000610709826106ec565b9050919050565b610719816106fe565b82525050565b60006020820190506107346000830184610710565b92915050565b6000604051905090565b600080fd5b600080fd5b600080fd5b600080fd5b6000601f19601f8301169050919050565b7f4e487b7100000000000000000000000000000000000000000000000000000000600052604160045260246000fd5b6107a182610758565b810181811067ffffffffffffffff821117156107c0576107bf610769565b5b80604052505050565b60006107d361073a565b90506107df8282610798565b919050565b600067ffffffffffffffff8211156107ff576107fe610769565b5b61080882610758565b9050602081019050919050565b82818337600083830152505050565b6000610837610832846107e4565b6107c9565b90508281526020810184848401111561085357610852610753565b5b61085e848285610815565b509392505050565b600082601f83011261087b5761087a61074e565b5b813561088b848260208601610824565b91505092915050565b6000819050919050565b6108a781610894565b81146108b257600080fd5b50565b6000813590506108c48161089e565b92915050565b600080604083850312156108e1576108e0610744565b5b600083013567ffffffffffffffff8111156108ff576108fe610749565b5b61090b85828601610866565b925050602061091c858286016108b5565b9150509250929050565b60006020828403121561093c5761093b610744565b5b600061094a848285016108b5565b91505092915050565b600081519050919050565b600082825260208201905092915050565b60005b8381101561098d578082015181840152602081019050610972565b8381111561099c576000848401525b50505050565b60006109ad82610953565b6109b7818561095e565b93506109c781856020860161096f565b6109d081610758565b840191505092915050565b600060208201905081810360008301526109f581846109a2565b905092915050565b6000610a08826106ec565b9050919050565b610a18816109fd565b82525050565b6000602082019050610a336000830184610a0f565b92915050565b610a4281610894565b82525050565b6000602082019050610a5d6000830184610a39565b92915050565b60008115159050919050565b610a7881610a63565b8114610a8357600080fd5b50565b600081519050610a9581610a6f565b92915050565b600060208284031215610ab157610ab0610744565b5b6000610abf84828501610a86565b91505092915050565b7f4974656d206e6f7420617661696c61626c650000000000000000000000000000600082015250565b6000610afe60128361095e565b9150610b0982610ac8565b602082019050919050565b60006020820190508181036000830152610b2d81610af1565b9050919050565b600081519050610b438161089e565b92915050565b600060208284031215610b5f57610b5e610744565b5b6000610b6d84828501610b34565b91505092915050565b7f44657369726564207175616e74697479206973206e6f7420617661696c61626c60008201527f6500000000000000000000000000000000000000000000000000000000000000602082015250565b6000610bd260218361095e565b9150610bdd82610b76565b604082019050919050565b60006020820190508181036000830152610c0181610bc5565b9050919050565b600081905092915050565b6000610c1e82610953565b610c288185610c08565b9350610c3881856020860161096f565b80840191505092915050565b6000610c508284610c13565b915081905092915050565b7f4e487b7100000000000000000000000000000000000000000000000000000000600052602260045260246000fd5b60006002820490506001821680610ca257607f821691505b60208210811415610cb657610cb5610c5b565b5b50919050565b7f4e487b7100000000000000000000000000000000000000000000000000000000600052603260045260246000fd5b60008190508160005260206000209050919050565b60008154610d0d81610c8a565b610d178186610c08565b94506001821660008114610d325760018114610d4357610d76565b60ff19831686528186019350610d76565b610d4c85610ceb565b60005b83811015610d6e57815481890152600182019150602081019050610d4f565b838801955050505b50505092915050565b6000610d8b8284610d00565b915081905092915050565b60008154610da381610c8a565b610dad818661095e565b94506001821660008114610dc85760018114610dda57610e0d565b60ff1983168652602086019350610e0d565b610de385610ceb565b60005b83811015610e0557815481890152600182019150602081019050610de6565b808801955050505b50505092915050565b60006020820190508181036000830152610e308184610d96565b905092915050565b7f4e487b7100000000000000000000000000000000000000000000000000000000600052601160045260246000fd5b6000610e7282610894565b9150610e7d83610894565b9250817fffffffffffffffffffffffffffffffffffffffffffffffffffffffffffffffff0483118215151615610eb657610eb5610e38565b5b828202905092915050565b6000610ecc82610894565b9150610ed783610894565b9250827fffffffffffffffffffffffffffffffffffffffffffffffffffffffffffffffff03821115610f0c57610f0b610e38565b5b828201905092915050565b6000610f2282610894565b91507fffffffffffffffffffffffffffffffffffffffffffffffffffffffffffffffff821415610f5557610f54610e38565b5b60018201905091905056fea26469706673582212209bd7a3e6c98c615d2065ef6eb7fcff2ec274439f969283defe15c8b66e1354d164736f6c634300080b0033",
  "immutableReferences": {},
  "source": "// SPDX-License-Identifier: MIT\r\npragma solidity ^0.8.11;\r\nimport \"./MenuManagement.sol\";\r\nimport \"./PromotionsAndDiscounts.sol\";\r\n\r\ncontract OrderProcessing {\r\n    MenuManagement public menu;\r\n    PromotionsAndDiscounts public discount;\r\n    string []public items;\r\n    mapping (string=>uint) quantity;\r\n    uint price;\r\n\r\n\r\n    constructor(address _menu, address _discount) {\r\n        menu = MenuManagement(_menu);\r\n        discount=PromotionsAndDiscounts(_discount);\r\n    }\r\n\r\n    function selectItems(string memory itemName, uint q) external {\r\n        require(menu.checkAvailability(itemName),\"Item not available\");\r\n        require(menu.checkQuantity(itemName)>q, \"Desired quantity is not available\");\r\n        items.push(itemName);\r\n        quantity[itemName]=q;\r\n    }\r\n\r\n    function placeOrder() external returns (uint) {\r\n        price=0;\r\n        for(uint i=0;i<items.length;i++)\r\n        {\r\n            price+=menu.checkPrice(items[i])*quantity[items[i]];\r\n        }\r\n        price=discount.calculateDiscountedPrice(price);\r\n        return price;\r\n    }\r\n}\r\n ",
  "sourcePath": "D:\\Programming\\VSCode\\Solidity\\cafeteria-dapp\\contracts\\OrderProcessing.sol",
  "compiler": {
    "name": "solc",
    "version": "0.8.11+commit.d7f03943.Emscripten.clang"
  },
  "schemaVersion": "3.4.16",
  "updatedAt": "2024-01-06T16:54:31.013Z",
  "networkType": "ethereum",
  "devdoc": {
    "kind": "dev",
    "methods": {},
    "version": 1
  },
  "userdoc": {
    "kind": "user",
    "methods": {},
    "version": 1
  }
}