{
  "contractName": "PromotionsAndDiscounts",
  "abi": [
    {
      "inputs": [],
      "stateMutability": "nonpayable",
      "type": "constructor"
    },
    {
      "inputs": [
        {
          "internalType": "uint256",
          "name": "price",
          "type": "uint256"
        }
      ],
      "name": "calculateDiscountedPrice",
      "outputs": [
        {
          "internalType": "uint256",
          "name": "",
          "type": "uint256"
        }
      ],
      "stateMutability": "view",
      "type": "function",
      "constant": true
    }
  ],
  "bytecode": "0x608060405234801561001057600080fd5b506101f46000819055506103e86001819055506105dc6002819055506102de8061003b6000396000f3fe608060405234801561001057600080fd5b506004361061002b5760003560e01c806310e3ec6814610030575b600080fd5b61004a60048036038101906100459190610134565b610060565b6040516100579190610170565b60405180910390f35b600080548210610091576064600a8361007991906101ba565b6100839190610243565b8261008e9190610274565b91505b60015482106100c15760646014836100a991906101ba565b6100b39190610243565b826100be9190610274565b91505b60025482106100f1576064601e836100d991906101ba565b6100e39190610243565b826100ee9190610274565b91505b819050919050565b600080fd5b6000819050919050565b610111816100fe565b811461011c57600080fd5b50565b60008135905061012e81610108565b92915050565b60006020828403121561014a576101496100f9565b5b60006101588482850161011f565b91505092915050565b61016a816100fe565b82525050565b60006020820190506101856000830184610161565b92915050565b7f4e487b7100000000000000000000000000000000000000000000000000000000600052601160045260246000fd5b60006101c5826100fe565b91506101d0836100fe565b9250817fffffffffffffffffffffffffffffffffffffffffffffffffffffffffffffffff04831182151516156102095761020861018b565b5b828202905092915050565b7f4e487b7100000000000000000000000000000000000000000000000000000000600052601260045260246000fd5b600061024e826100fe565b9150610259836100fe565b92508261026957610268610214565b5b828204905092915050565b600061027f826100fe565b915061028a836100fe565b92508282101561029d5761029c61018b565b5b82820390509291505056fea26469706673582212206637da5d7fcfb67639766eb51ded7659064f7bf9066bbd5a2f291c0ce4ed293c64736f6c634300080b0033",
  "immutableReferences": {},
  "source": "// SPDX-License-Identifier: MIT\r\npragma solidity ^0.8.11;\r\n\r\ncontract PromotionsAndDiscounts{\r\n    uint discount10;\r\n    uint discount20;\r\n    uint discount30;\r\n\r\n    constructor(){\r\n        discount10=500;\r\n        discount20=1000;\r\n        discount30=1500;\r\n    }\r\n\r\n    function calculateDiscountedPrice(uint price) external view returns (uint){\r\n        if(price>=discount10)\r\n        {\r\n            price-=(price*10)/100;\r\n        }\r\n        if(price>=discount20)\r\n        {\r\n            price-=(price*20)/100;\r\n        }\r\n        if(price>=discount30)\r\n        {\r\n            price-=(price*30)/100;\r\n        }\r\n\r\n        return price;\r\n\r\n    } \r\n}",
  "sourcePath": "D:\\Programming\\VSCode\\Solidity\\cafeteria-dapp\\contracts\\PromotionsAndDiscounts.sol",
  "compiler": {
    "name": "solc",
    "version": "0.8.11+commit.d7f03943.Emscripten.clang"
  },
  "schemaVersion": "3.4.16",
  "updatedAt": "2024-01-06T16:54:31.032Z",
  "networkType": "ethereum",
  "devdoc": {
    "kind": "dev",
    "methods": {},
    "version": 1
  },
  "userdoc": {
    "kind": "user",
    "methods": {},
    "version": 1
  }
}