{
  "contractName": "RewardsAndLoyalty",
  "abi": [
    {
      "inputs": [],
      "stateMutability": "nonpayable",
      "type": "constructor"
    },
    {
      "inputs": [
        {
          "internalType": "uint256",
          "name": "price",
          "type": "uint256"
        }
      ],
      "name": "getReward",
      "outputs": [
        {
          "internalType": "uint256",
          "name": "x",
          "type": "uint256"
        }
      ],
      "stateMutability": "nonpayable",
      "type": "function"
    },
    {
      "inputs": [],
      "name": "getRewardsGiven",
      "outputs": [
        {
          "internalType": "uint256",
          "name": "",
          "type": "uint256"
        }
      ],
      "stateMutability": "view",
      "type": "function",
      "constant": true
    }
  ],
  "bytecode": "0x608060405234801561001057600080fd5b5060008081905550610268806100276000396000f3fe608060405234801561001057600080fd5b50600436106100365760003560e01c80631c4b774b1461003b57806330cff3151461006b575b600080fd5b61005560048036038101906100509190610156565b610089565b6040516100629190610192565b60405180910390f35b610073610112565b6040516100809190610192565b60405180910390f35b60006101f482106100b65760016000808282546100a691906101dc565b92505081905550600a905061010d565b6103e882106100e15760016000808282546100d191906101dc565b925050819055506014905061010d565b6105dc821061010c5760016000808282546100fc91906101dc565b92505081905550601e905061010d565b5b919050565b60008054905090565b600080fd5b6000819050919050565b61013381610120565b811461013e57600080fd5b50565b6000813590506101508161012a565b92915050565b60006020828403121561016c5761016b61011b565b5b600061017a84828501610141565b91505092915050565b61018c81610120565b82525050565b60006020820190506101a76000830184610183565b92915050565b7f4e487b7100000000000000000000000000000000000000000000000000000000600052601160045260246000fd5b60006101e782610120565b91506101f283610120565b9250827fffffffffffffffffffffffffffffffffffffffffffffffffffffffffffffffff03821115610227576102266101ad565b5b82820190509291505056fea2646970667358221220fe039a3908e6cd301109cf5da472a3f59a4ebbccf306ee57bcb487934d29fe4864736f6c634300080b0033",
  "immutableReferences": {},
  "source": "// SPDX-License-Identifier: MIT\r\npragma solidity ^0.8.11;\r\n\r\ncontract RewardsAndLoyalty{\r\n    uint rewards;\r\n    \r\n    constructor(){\r\n        rewards=0;\r\n    }\r\n\r\n    function getReward(uint price)public returns (uint x){\r\n        if(price>=500)\r\n        {\r\n            rewards+=1;\r\n            return x=10;\r\n        }\r\n        else if(price>=1000)\r\n        {\r\n            rewards+=1;\r\n            return x=20;\r\n        }\r\n        else if(price>=1500)\r\n        {\r\n            rewards+=1;\r\n            return x=30;      \r\n        }\r\n    }\r\n\r\n    function getRewardsGiven() external view returns (uint){\r\n        return rewards;\r\n    }\r\n}",
  "sourcePath": "D:\\Programming\\VSCode\\Solidity\\cafeteria-dapp\\contracts\\RewardsAndLoyalty.sol",
  "compiler": {
    "name": "solc",
    "version": "0.8.11+commit.d7f03943.Emscripten.clang"
  },
  "schemaVersion": "3.4.16",
  "updatedAt": "2024-01-06T16:54:31.352Z",
  "networkType": "ethereum",
  "devdoc": {
    "kind": "dev",
    "methods": {},
    "version": 1
  },
  "userdoc": {
    "kind": "user",
    "methods": {},
    "version": 1
  }
}